S0140000536572766F5F7465737465722E737265630B
S11300000AC04BC023C022C031C020C01FC01EC0C4
S11300101DC01CC01BC011271FBFCFE5D0E0DEBF31
S1130020CDBF20E0A0E4B0E0E4EEF2E402C0319100
S11300303D93A834B207D9F720E0A8E4B0E001C0AA
S11300401D93AA34B207E1F79DD04AC1D9CF46E83F
S11300504DBB41E047BB08954DB340644DBBEC9BA1
S1130060FECF4DB340614DBB89B308951F930F93E9
S11300700FB70F9310E04F9348A14F5F48A94B303F
S113008030F018A941E046A94BB54E7F4BBD4F91C6
S11300900F910FBF0F911F9118951F930F930FB7D7
S11300A00F9310E04F9346A1413059F416A94BB574
S11300B041604BBD49A14F5F49A949A1433008F0B4
S11300C019A94F910F910FBF0F911F9118952F935D
S11300D03F93CF93DF9300D000D000D0CDB7DEB7ED
S11300E0CE5FDF4F58834A93C150D040282F392F19
S11300F040E050E0CD5FDF4F299339934993588313
S1130100C650D040462F572FCF5FDF4F899198813B
S1130110C250D040481B590B1F931F935F934F93BA
S1130120CD5FDF4F6991799189919881C650D04014
S113013088D00F910F910F910F91462F572F682F51
S1130140792F972F862F752F642F2FEF30E040E003
S113015050E09FD0CF5FDF4F89919881820F931F2A
S11301600F910F910F910F910F910F91DF91CF91FB
S11301703F912F91089544E043B942E045BB41E0EB
S113018043BB089548ED4CBF16BF61DFF4DF54D084
S1130190789449A1411309C05FDF44A155A162A12C
S11301A073A190E094DF4AD0F4CF49A1413021F407
S11301B080A191A143D0EDCF49A1423051F7C4A110
S11301C0D5A10FC08C2F9D2F39D049A1423071F495
S11301D04FEC57E041505040E9F700C00000CF5FBA
S11301E0DF4F42A153A14C175D0760F7C2A1D3A111
S11301F00FC08C2F9D2F22D049A1423051F64FECD5
S113020057E041505040E9F700C00000C150D10B05
S113021044A155A1C417D50760F7BBCF41B14260D3
S113022041B940E24EBD42E14DBD40E157E253BD0C
S113023042BD15BD14BD0895F1DF089595BD84BD7B
S11302400895ADB7BEB7AD5FBF4F2F933F932D91C8
S11302503D914D915C91EE27FF27AA27BB2708C04B
S1130260A20FB31FE41FF51F220F331F441F551F96
S1130270969587957795679598F37040A9F7805080
S1130280904091F76A2F7B2F8E2F9F2F3F912F91B4
S11302900895A1E21A2FAA1BBB1BEA2FFB2F0DC046
S11302A0AA1FBB1FEE1FFF1FA217B307E407F50722
S11302B020F0A21BB30BE40BF50B661F771F881FFE
S11302C0991F1A9569F76095709580959095262FDA
S11302D0372F482F592F6A2F7B2F8E2F9F2F08954A
S10702E0F894FFCFBC
S10B02E4EE02B0042C0101003C
S9030000FC
