S0140000536572766F5F7465737465722E737265630B
S11300000AC048C023C022C02DC020C01FC01EC0CB
S11300101DC01CC01BC011271FBFCFE5D0E0DEBF31
S1130020CDBF20E0A0E4B0E0E2E9F2E402C0319107
S11300303D93A834B207D9F720E0A8E4B0E001C0AA
S11300401D93AA34B207E1F746D021C1D9CF46E8BF
S11300504DBB41E047BB0895EE9AEC9BFECFEC9A72
S113006089B308951F930F930FB70F9310E04F9325
S113007048A14F5F4B3010F448A906C018A941E0CD
S113008046A94BB54E7F4BBD4F910F910FBF0F91BA
S11300901F9118951F930F930FB70F9310E04F9371
S11300A046A1413059F44BB541604BBD16A949A155
S11300B04F5F49A949A1433008F019A94F910F9105
S11300C00FBF0F911F91189544E043B942E045BB1F
S11300D041E043BB089548ED4CBF16BFB8DFF4DFE1
S11300E083D0789449A1411328C0B6DFC4A1D5A117
S11300F042A153A14C1B5D0B60E070E01F931F9362
S11301001F938F93972F862F752F642F71D00F9184
S11301100F910F910F91462F572F682F792F972FFB
S1130120862F752F642F2FEF30E040E050E088D009
S11301308C2F9D2F820F931F05C049A1413021F4BC
S113014080A191A152D0CECF49A1423059F6C4A189
S1130150D5A142A153A14C175D0780F049A14230BB
S113016069F48C2F9D2F41D04FEC57E04150504003
S1130170E9F700C00000CF5FDF4FEBCF5FE769EA2C
S113018043E0515060404040E1F700C00000C2A18C
S1130190D3A144A155A1C417D50780F049A1423089
S11301A069F48C2F9D2F21D04FEC57E041505040E3
S11301B0E9F700C00000C150D10BEBCF5FE769EA5B
S11301C043E0515060404040E1F700C000008ACF56
S11301D0099A40E24EBD42E14DBD40E157E253BDB4
S11301E042BD15BD14BD0895F3CF95BD84BD0895DA
S11301F0ADB7BEB7AD5FBF4F2F933F932D913D91E8
S11302004D915C91EE27FF27AA27BB2708C0A20FB8
S1130210B31FE41FF51F220F331F441F551F96956C
S113022087957795679598F37040A9F7805090402B
S113023091F76A2F7B2F8E2F9F2F3F912F91089537
S1130240A1E21A2FAA1BBB1BEA2FFB2F0DC0AA1F6A
S1130250BB1FEE1FFF1FA217B307E407F50720F02B
S1130260A21BB30BE40BF50B661F771F881F991FA6
S11302701A9569F76095709580959095262F372F7C
S1130280482F592F6A2F7B2F8E2F9F2F0895F89474
S1050290FFCF9A
S10B0292EE02BA04220101008E
S9030000FC
